{
  "_format": "hh-sol-artifact-1",
  "contractName": "AccountAbstraction",
  "sourceName": "contracts/AccountKip.sol",
  "abi": [
    {
      "inputs": [
        {
          "internalType": "address",
          "name": "_poolContractAddress",
          "type": "address"
        },
        {
          "internalType": "address",
          "name": "_tokenAddress",
          "type": "address"
        },
        {
          "internalType": "address",
          "name": "_appOwner",
          "type": "address"
        },
        {
          "internalType": "address",
          "name": "_modelOwner",
          "type": "address"
        },
        {
          "internalType": "address",
          "name": "_dataOwner",
          "type": "address"
        }
      ],
      "stateMutability": "nonpayable",
      "type": "constructor"
    },
    {
      "inputs": [],
      "name": "APP_OWNER_ADDRESS",
      "outputs": [
        {
          "internalType": "address",
          "name": "",
          "type": "address"
        }
      ],
      "stateMutability": "view",
      "type": "function"
    },
    {
      "inputs": [],
      "name": "APP_SHARE",
      "outputs": [
        {
          "internalType": "uint256",
          "name": "",
          "type": "uint256"
        }
      ],
      "stateMutability": "view",
      "type": "function"
    },
    {
      "inputs": [],
      "name": "DATASET_OWNER_ADDRESS",
      "outputs": [
        {
          "internalType": "address",
          "name": "",
          "type": "address"
        }
      ],
      "stateMutability": "view",
      "type": "function"
    },
    {
      "inputs": [],
      "name": "DATASET_SHARE",
      "outputs": [
        {
          "internalType": "uint256",
          "name": "",
          "type": "uint256"
        }
      ],
      "stateMutability": "view",
      "type": "function"
    },
    {
      "inputs": [],
      "name": "MODEL_SHARE",
      "outputs": [
        {
          "internalType": "uint256",
          "name": "",
          "type": "uint256"
        }
      ],
      "stateMutability": "view",
      "type": "function"
    },
    {
      "inputs": [],
      "name": "Model_OWNER_ADDRESS",
      "outputs": [
        {
          "internalType": "address",
          "name": "",
          "type": "address"
        }
      ],
      "stateMutability": "view",
      "type": "function"
    },
    {
      "inputs": [
        {
          "internalType": "uint256",
          "name": "amount",
          "type": "uint256"
        }
      ],
      "name": "escrowedTokens",
      "outputs": [],
      "stateMutability": "nonpayable",
      "type": "function"
    },
    {
      "inputs": [],
      "name": "getAccountAbstractionBalance",
      "outputs": [
        {
          "internalType": "uint256",
          "name": "balance",
          "type": "uint256"
        }
      ],
      "stateMutability": "view",
      "type": "function"
    },
    {
      "inputs": [],
      "name": "getPoolContractBalance",
      "outputs": [
        {
          "internalType": "uint256",
          "name": "balance",
          "type": "uint256"
        }
      ],
      "stateMutability": "view",
      "type": "function"
    },
    {
      "inputs": [],
      "name": "userApprovedTokensBalance",
      "outputs": [
        {
          "internalType": "uint256",
          "name": "",
          "type": "uint256"
        }
      ],
      "stateMutability": "view",
      "type": "function"
    },
    {
      "inputs": [],
      "name": "withdraw",
      "outputs": [],
      "stateMutability": "nonpayable",
      "type": "function"
    }
  ],
  "bytecode": "0x60e06040526032600355601e600455601460055534801561001f57600080fd5b506040516108c23803806108c283398101604081905261003e916100ac565b600180546001600160a01b039687166001600160a01b03199182168117909255600280548216909217909155600080549587169590911694909417909355908316608052821660a0521660c052610111565b80516001600160a01b03811681146100a757600080fd5b919050565b600080600080600060a086880312156100c457600080fd5b6100cd86610090565b94506100db60208701610090565b93506100e960408701610090565b92506100f760608701610090565b915061010560808701610090565b90509295509295909350565b60805160a05160c05161076e610154600039600060d3015260008181610121015261050101526000818161019c0152818161042b01526105d7015261076e6000f3fe608060405234801561001057600080fd5b50600436106100c95760003560e01c8063cf862cf411610081578063ead1a61d1161005b578063ead1a61d1461017c578063f4be779c14610184578063fb98d5341461019757600080fd5b8063cf862cf414610162578063d5d01fb71461016b578063ddddc8021461017357600080fd5b8063426aea55116100b2578063426aea551461011c57806349829a7d1461014357806382d0fc521461015a57600080fd5b806303438fd2146100ce5780633ccfd60b14610112575b600080fd5b6100f57f000000000000000000000000000000000000000000000000000000000000000081565b6040516001600160a01b0390911681526020015b60405180910390f35b61011a6101be565b005b6100f57f000000000000000000000000000000000000000000000000000000000000000081565b61014c60045481565b604051908152602001610109565b61014c610249565b61014c60035481565b61014c6102bc565b61014c60055481565b61014c61034e565b61011a610192366004610696565b610383565b6100f57f000000000000000000000000000000000000000000000000000000000000000081565b60006101c86102bc565b6000546040516323b872dd60e01b815233600482018190526024820152604481018390529192506001600160a01b0316906323b872dd906064016020604051808303816000875af1158015610221573d6000803e3d6000fd5b505050506040513d601f19601f8201168201806040525081019061024591906106af565b5050565b600080546040516370a0823160e01b81523060048201526001600160a01b03909116906370a08231906024015b602060405180830381865afa158015610293573d6000803e3d6000fd5b505050506040513d601f19601f820116820180604052508101906102b791906106d8565b905090565b600080546040517fdd62ed3e00000000000000000000000000000000000000000000000000000000815233600482015230602482015282916001600160a01b03169063dd62ed3e90604401602060405180830381865afa158015610324573d6000803e3d6000fd5b505050506040513d601f19601f8201168201806040525081019061034891906106d8565b92915050565b600080546001546040516370a0823160e01b81526001600160a01b0391821660048201529116906370a0823190602401610276565b6000546001546040516323b872dd60e01b81523360048201526001600160a01b039182166024820152604481018490529116906323b872dd906064016020604051808303816000875af11580156103de573d6000803e3d6000fd5b505050506040513d601f19601f8201168201806040525081019061040291906106af565b5061041081620f42406106f1565b6002546003549192506001600160a01b03169063e5e956cb907f000000000000000000000000000000000000000000000000000000000000000090620f42409060649061045d90876106f1565b6104679190610716565b6104719190610716565b6040517fffffffff0000000000000000000000000000000000000000000000000000000060e085901b1681526001600160a01b0390921660048301526024820152604401600060405180830381600087803b1580156104cf57600080fd5b505af11580156104e3573d6000803e3d6000fd5b50506002546004546001600160a01b03909116925063e5e956cb91507f000000000000000000000000000000000000000000000000000000000000000090620f42409060649061053390876106f1565b61053d9190610716565b6105479190610716565b6040517fffffffff0000000000000000000000000000000000000000000000000000000060e085901b1681526001600160a01b0390921660048301526024820152604401600060405180830381600087803b1580156105a557600080fd5b505af11580156105b9573d6000803e3d6000fd5b50506002546005546001600160a01b03909116925063e5e956cb91507f000000000000000000000000000000000000000000000000000000000000000090620f42409060649061060990876106f1565b6106139190610716565b61061d9190610716565b6040517fffffffff0000000000000000000000000000000000000000000000000000000060e085901b1681526001600160a01b0390921660048301526024820152604401600060405180830381600087803b15801561067b57600080fd5b505af115801561068f573d6000803e3d6000fd5b5050505050565b6000602082840312156106a857600080fd5b5035919050565b6000602082840312156106c157600080fd5b815180151581146106d157600080fd5b9392505050565b6000602082840312156106ea57600080fd5b5051919050565b808202811582820484141761034857634e487b7160e01b600052601160045260246000fd5b60008261073357634e487b7160e01b600052601260045260246000fd5b50049056fea26469706673582212202b28428de83516f8783f3103c2af7086480b233dd699aeee9f7e4214e787abab64736f6c63430008130033",
  "linkReferences": {},
  "deployedLinkReferences": {}
}